:200000000040002029E4000001C9011001C9011001C9011001C9011001C9011001C9011051
:1C00200001C9011001C9011001C9011001C9011001C9011001C901103FC9011089
:20003C002DE9F04FD54D291D2846ADF1340D0DF077FE05F124060021304600F0FBFBD3496F
:20005C0005F1500441F2883201232046AE600EF05BF80FF00DFE4FF0804000210DF0ECF958
:20007C00DFF82CA307210022CDA3CAF800000FF0C0FDD24F10201F220623394605F038FA25
:20009C00002050214FF4487283468DF82D00CC4EADF82210D846ADF824204FF47A70ADF871
:2000BC0026B01121A6F80E8005F13E02ADF828004FF4427003F074FB40F20730072105F10F
:2000DC00140203F06DFB4FF4447001210DF12D0203F066FB40F2113002210DF1220203F04E
:2000FC005FFB40F21230022109AA03F059FB40F2133002210DF1260203F052FB4FF4457003
:20011C0002210AAA03F04CFB05F1300042460E23C1490090102005F0EBF939461020062259
:20013C00A02305F0E5F9394610200722A02305F0DFF9394610200822A02305F0D9F93946C3
:20015C0010200922A02305F0D3F901208DF82E008DF82F00C64C8DF830B003468DF832B0F5
:20017C004FF480621F4621468DF8317010200DF12E07009705F0BCF90DF12F0040F2024205
:20019C00012300902146102005F0B2F90CA840F20342012300902146102005F0A9F90DF14D
:2001BC00310040F20642012300902146102005F09FF90DF132004FF483620123009021462D
:2001DC00102005F095F9C74910204FF0FF3205F08FF9C54910204FF0FF3205F089F9C34FEC
:2001FC00102013230090C34AC149019705F080F9C14FC24B0A21102207F134000FF01EFC11
:20021C00BF4CB7A0E0602061201DB860CB4884F80880424684F80980434684F80A80C94905
:20023C0084F80B800DF070FFDFF81C93C74B0D21102209F10C000FF001FCC548C9F8040063
:20025C0007F0EAFF304643783078BBB9324605F10C0111620FF042FB37460246CDF800B0F1
:20027C0030464430C849019007F15400029006F11C000390BB78102005F03AF9C34905F1C5
:20029C001C02102005F034F928780FF027FBC0490246102005F02CF928780FF01FFBBD49B7
:2002BC000246102005F024F9BB49102005F020F95046006841464246AFA30FF09AFC01263B
:2002DC00CA466868B54A41464FF0FF3300F0B6FA83460028F5D0404606900BA906AA08A8A5
:2002FC000FF0C0F8002840F09180BDF82010B146102940F0848028789DF82C1088427ED1EF
:20031C00069F38884FF6FF71814278D03B78913B40D01F3B73D17878162818BF404605D10E
:20033C0048460FF031FDC44948460F602B6988B91748397900687E2904D07F2917D13989C1
:20035C00C0A301E0397AC3A30091424605210FF050FC0CE0A3B94FF6FD70C649C64A0090F1
:20037C004346102005F0C4F82B69C2B242B139790837384600F066FA41E0C04608020020EC
:20039C0043F00203C1462B6139E0C046510B01002011002078780E3814D0801E2BD02EE0E8
:2003BC003E3E3E4C4F4747455220494E495449414C495A45443C3C3C00C046C015F30000CF
:2003DC00980D0020B88842F20301814217D1B9680F78A7B9491C04A80A684968026004AFC8
:2003FC0041603878C24904AA00F0FD003870102005F07EF803E00820414605F057FC06982F
:20041C0020B1B9F1000F01D010F0B8FD5FEADB70C0F0A881A0E1C046B9BC0000AF683846B2
:20043C0000F014FA874208BF474602D087680CF0B5FE381C00F09081C34938882A690968F0
:20045C00401E8C4600F08281401E00F02081801E00F0E180001F00F0CC80083800F0A080D4
:20047C0010384FD0203805D0403800F0648170E15D3F0000D7F8049099F800004246BEA3B5
:20049C000721009060460FF0B4FB99F80100AE4B0090186808214246BAA30FF0AAFB99F856
:2004BC0000000D2840F0A18023785BB9304609F067FF30460EF0FAFDAE4841F288310EF0CB
:2004DC00F9FC92E01D4800F0C5F940460EF0EEFD0EF00AFC0CF0D0FD84F8008085E0C046E3
:2004FC0000C046C045FF0000CD010100FC30010059FA0000F40A0020F01200205C2D0100BD
:20051C00941600209048D0F804C09AF80010BAF80220DAF80830B87848B3401E1AD0401E40
:20053C000ED0401E40F015819AF8011003208DF810008DF833100DF1330011E0BC16002066
:20055C000220F4E7F10B010014120020702B01005C050020ADF82A208DF810600DF12A0016
:20057C00059004A94246604600F078F9F1E0079307A88DF81080F3E746393120536D617222
:20059C00742057617463680003E600009D0401005188011031810110C5AB0010010000C03B
:2005BC00900822D324480368FBB15888197908331A4600F057F98146B9F1160F04D0B9F1AE
:2005DC00040F01D00FF0E0FB2B69B9F1000F0CD133F002032B6108D12649274A4FF6FD70F8
:2005FC0033460090102004F083FF78680CF0D6FDAFE0786803783BB186480090424664A3BE
:20061C00084604210FF0F5FA8248874B009080491A8A4346E6E77968BB780878002B2DD0B2
:20063C00012B1FD0022B09D0032B2ED1002808BF5BA324D05FA31AE09426002028BB63A3B0
:20065C001DE0C0464D54552053697A653A20256400C046C046432056696F6C617465643A06
:20067C0020256400002808BF5CA308D05FA3009005E0C046F1D80000C706010060A3604632
:20069C00022142460FF0B5FA79680846AEE76749B8788A884B8820B1401E2BD0401E1AD0EA
:2006BC0057E008460078410834BF84F808802672810834BF84F809806672C10834BF84F8B8
:2006DC000A80A672000934BF84F80B80E672304609F056FE3DE0524850490AF019FA504849
:2006FC00267020610EF000FB216902200EE0C04695B400104A484B491A460AF009FA4848C2
:20071C002670E0600EF0F0FAE168304605F038FE184800F09FF80CF0AFFC30460EF0C6FC51
:20073C00434841F288310EF0C5FB3D48414614220BF0B2FC0DE040460EF0B8FC0EF0D4FA8C
:20075C000CF09AFC05E0C04620110020B87800F051FB38460CF022FDA86800F087F8002803
:20077C003FF45CAE5FEA5B00FFF4ABAD2A4800F081F8A6E5D4140020425554544F4E3A208D
:20079C00256400C053544154453A20256400C04650617373636F64653A20256400C046C0AF
:2007BC00426F6E642073617665207375636365737300C046426F6E64207361766520666173
:2007DC00696C65643A20256400C046C0426F6E64696E672073756363657373005061697250
:2007FC00696E6720737563636573730050616972696E67206661696C3A20256400C046C057
:20081C0050616972696E67207374617274656400E5F4000040E20100580200201013002022
:20083C00A8160020FC120020980D0020F0120020BC160020DFF800F0A1B60110DFF800F0C1
:20085C00F99B0110DFF800F089840110DFF800F019BD0110DFF800F0B9BA0110DFF800F032
:20087C00EDA00110DFF800F0DDFE0010DFF800F04FBF0110DFF800F01FBE01102DE9F04F1C
:20089C00D04C04F118012046ADF1340D0DF048FAD24D002604F1A40A4FF6FF7001236670F8
:2008BC0032462082294650460DF02EFCCC480223324629460DF028FCCF4804233246294670
:2008DC000DF022FC04F14408042010223146A07040460BF0E1FB04F15409102248463146DD
:2008FC000BF0DAFB04F11C073E6004F10A052E7007206072DFF80CB3E67102222672594673
:20091C0010200346CDF8008004F0F2FD102003225946CDF80090034604F0EAFD0422102057
:20093C0059460097134604F0E3FD4FF0080A4FF003094FF0010B05F12A00079005F179002B
:20095C00089005F11E00099005F15A000A9024350B9517E06078A28FE18FB4F84050B4F8FB
:20097C00423006280ED1ADF80A20ADF80C10ADF80E509B48ADF81030FFF76CFF584602A9D7
:20099C000BF040F8A069B64A31464FF0FF33FFF755FF071CF6D0059606A80DF11A0105AAD3
:2009BC000EF060FD002840F0C181BDF818102078102940F0B7819DF81A10884240F0B28124
:2009DC00059D29884FF6FF728A4200F0A0812B78A23B00F083812E3B40F0A481A978B046CC
:2009FC00002900F03F81891E00F00E81491E012940F2D680891E00F09A80491E6ED0491E06
:200A1C005BD0083900F05A81891E40F05D8194F83A10A8880529ADF8080046D070488DF89A
:200A3C0012B010F0FFFA94F83A0001281ED004281CD003280DD002280BD00598C188ADF852
:200A5C000A100189ADF80C104189ADF80E10818927E0A18FE08FADF80A10B4F84020ADF868
:200A7C000C00B4F84210ADF80E201AE0A08FE9888842D8BF081CADF80A002989E08F8842C4
:200A9C00D8BF081CADF80C006989B4F840008842D8BF081CADF80E00A989B4F842008842CE
:200ABC0000DC0846ADF8100001E08DF81260AB49102002AA04F01CFD06E14F4810F0B2FA5C
:200ADC006B78002B40F00081E88860822889A0826889E082424810F075F8F5E0AA88B649C6
:200AFC00102004F005FD0798414606220BF0D4FA6682A682E682A8792073394810F092FA64
:200B1C003D4810F08FFAD8464FF6FF702379208253B9A879082814BF042005206070A06949
:200B3C00594600F063F9CFE084F80190CCE06B787BBB291D0A680798026089888180062339
:200B5C00637068892082E8896082288AA082688A94F83A10E082E8780129E07218BF0229E4
:200B7C000BD19B4910201F2204F0C2FC4FF47A7180B241431A480EF09DF9688904230090F4
:200B9C0092490193EA7810202D1D2B4604F0B0FC9DE06878312840F08E80E67004202EE061
:200BBC006B78002B40F08780A878E1896278032818D0E078257939B9012814BF2671E6708C
:200BDC0008E0C046980D0020054303D081480EF071F96278072AE1D1062010E0510C0100C9
:200BFC00600E0020062A09D0E578002D08BF84F801906CD0022002E0840E002007206070FB
:200C1C0065E0C046610401006B78002B53D1EB7861789BB902291ED007291CD0062902D10E
:200C3C002079012817D1032915D06A480FF0CAFF88B9A069594600F0D9F80CE00EF04EFE83
:200C5C000246A07960490090089843460190102004F04EFC68706D78002D2CD134E0C046B5
:200C7C00070000806B7833BB5B485649009002221020034604F03CFC58484A46514900900B
:200C9C001020034604F034FCED1C296809980160A9888180207884F801B00EF01FFE0246A5
:200CBC005B460A9D6079484900901020019504F01FFCC0B258B184F801A008E0AA884049C6
:200CDC001020052304F014FCB8F1010F2AD1256A45B3296831B36078884723E06879132826
:200CFC0020D12889012808D1607B022805D13E48FFF7B0FD0EF000FC14E03549102005226D
:200D1C0004F0F6FB81B238480EF0D4F80AE06888C00B07D3324804222A49009013461020AA
:200D3C0004F0E6FB059808B110F028F92579E07879082ED355EA00032BD0204600787DB982
:200D5C00E279217A8DF808200B9D8DF809102B680DF10A010B60AA888A8003E0051601103C
:200D7C008DF80890627A8DF81020A17A8DF811100EF0B4FD1149024602AB102004F0B8FB13
:200D9C0038B1256A84F801A01DB1296809B150468847B80803D3134930460AF033FEF80891
:200DBC00FFF4F0AD607B401E3FF4D4AD401E7FF4E9AD0EF0A1FBE5E5D5C400005944011088
:200DDC00C11701104185000009450110518E0000D10701003C0E0020DC0D0020EC0D0020A5
:200DFC00B40D0020D20D0020840E0020DFF800F055A40110F0B5744C774E2568401EADF1C1
:200E1C002C0D6FD0401E6AA76AD07049801E51D0401E40D0401E04D0401E35D0401E31D0BB
:200E3C002CE00846FFF726FD6949102004F060FB6849C5B201AB10206A1E04F059FB48B91D
:200E5C00009520680221002247A30EF0D2FE0DF106000DE00C363046016806AF39608088F4
:200E7C00B8802068002244A302210EF0C2FE384625680CF0A5FF0321034607E0284602211C
:200E9C00002214E03FA300E040A30221284600220EF0AFFE66E014200EF076FF2068022185
:200EBC00002240A30EF0A5FE2068032105220FF063FF57E0012508468DF8295010F0B2F8E9
:200EDC0014200EF061FF2068032105220FF054FF40F205300DF12902294602F061FC256864
:200EFC003B46D2E731460A6808A802608988818000268DF808609DF824708DF807609DF8D2
:200F1C0021108DF80A709DF825308DF805109DF822208DF80B309DF820008DF806209DF875
:200F3C0023108DF8040001AF8DF809102B49786848603A680A6008A80CF042FF034601212B
:200F5C00324628460EF055FE206802211BA332460EF04FFE012140F205300AAA8DF8281018
:200F7C0002F01EFC0BB0F0BD4E756D20436F6E6E733A20256400C046436F6E6E6563746578
:200F9C006400C0464572726F7200C046436F6E6E6563746564204164766572746973696EEF
:200FBC006700C04654696D6564204F757400C0464164766572746973696E6700496E697443
:200FDC0069616C697A6564002011002058020020F17F0110097F0110C00D00205F0A0020B8
:040FFC0030BF70474B
:20100000B41200001810000051DA0000FDB301106DC00110FDAE011099B50110000000009D
:08102000000000003000000098
:20102800B01200003C100000B1C00110A9BF011067C0011069B80110000000000000000035
:041048003300000071
:20104C00B012000060100000BDC00110CDB30110D9BD01106DB3011000000000000000005B
:04106C00340000004C
:2010700000000000201B002004000000000000000000000020000000E8C9011030000000EF
:2010900028100000281B00200400000000000000000000000C000000D8CA011018000000CA
:2010B0004C100000301B002004000000000000000000000024000000F0CA0110180000004E
:2010D00000000000381B00200400000000000000000000001000000018CA01102C0000005A
:2010F00000100000481B0020040000000000000000000000200000006CCA011024000000BE
:20111000FFFFFFFF501B00200400000000000000000000002800000090CA0110240000007D
:20113000FFFFFFFF581B00200400000000000000000000001400000008CB011018000000FC
:20115000FFFFFFFF601B002004000000000000000000000058000000B4C9011034000000CA
:20117000FFFFFFFF681B00200400000000000000000000001000000020CB01101800000098
:20119000FFFFFFFF701B00200400000000000000000000001C000000B4CA011024000000C5
:2011B000FFFFFFFF781B00200400000000000000000000003800000044CA011028000000ED
:2011D000FFFFFFFF801B00200400000000000000000000005400000078C901103C00000062
:0811F000010000009431010030
:0411F80001000000F2
:0411FC0000000E00E1
:0412000000000F00DB
:0412040032000000B4
:0412080001000000E1
:04120C00F4190020B1
:0412100000020000D8
:0412140000000000D6
:0412180001C90110F7
:04121C0000000000CE
:0412200000000000CA
:0412240008000000BE
:0412280000002200A0
:04122C00F017002097
:0412300000000000BA
:0412340000000000B6
:0412380008000000AA
:04123C00B4190020C1
:0412400000000000AA
:0412440000000000A6
:04124800080000009A
:04124C00000000009E
:04125000000000009A
:041254000000000096
:041258000000000092
:04125C00010000008D
:04126000B81800209A
:041264000600000080
:041268000100000081
:04126C00E016002068
:04127000000000007A
:041274000000000076
:041278000002000070
:04127C00000000006E
:021280002A0042
:02128200010069
:02128400250043
:02128600330033
:02128800340030
:02128A00300032
:02128C0001005F
:01128E00015E
:0812900003000000143101000D
:0812980000000000000000004E
:0412A0000000010049
:0412A4000000030043
:0412A80013C401105A
:0412AC009F09010095
:0412B000B812000070
:0412B400B81200006C
:0412B8000000000032
:0412BC00D01A002024
:0412C0002F0B0100EF
:0412C4002000000006
:0412C80044300100AD
:0412CC00B82E010037
:0412D00029C101101F
:0412D400B3F400006F
:0412D80063FC0000B3
:0412DC00A1C7011095
:0412E000A3C701108F
:0412E4000000000006
:0412E8006731010069
:0412EC00202C0100B1
:0412F000382C010095
:0412F400082C0100C1
:0212F8000200F2
:0212FA000900E9
:0212FC000100EF
:0212FE000000EE
:0113000001EB
:04130400BD0A01001D
:0413080039F10000B7
:04130C00410001009B
:0413100019F40000CC
:0413140071F1000073
:0413180045E20000AA
:04131C00D5B6000042
:04132000870D010034
:04132400D9D6000016
:0413280015C70110D4
:04132C0025C70110C0
:201330002DE9F04F0F46CD4C0168E16241688068ADF11C0DE060C548A1608047C448E16A6A
:201350000160A168DFF810A34160E168DFF804938160CE49002FA346C1606FD03D68E878BC
:201370008DF80C0028798DF80D0003A810F0B8F9A86808B1C6490160E86808B1C54901608C
:20139000C54C287820706878BE686070A878B268A0703178A2607368E1702E696360EA6958
:2013B00026627968E2620868E06068696062A8697B68A062286A9E68206395F8240084F8EF
:2013D00034001EB900200FF0FBF800E066617868C06818B900200FF0F3F800E0A061786895
:2013F000006918B900200FF0EBF800E0E0617868406818B900200FF0E3F800E0206128693B
:201410002062F86881680E6806B9D24ED0494FF001084E60C66881F8018036B900200FF057
:20143000CFF84D462E68F86801E04D462E6000685446FB68A0615868E06107E000200FF0DD
:20145000BFF84D462E684FF001085446361DC7493668621C04F114035020B04710B1286877
:2014700080688047DBF808008047C24E002781463B46BF4877706946206104223370384627
:201490000DF092FC0098B0F5801F0CD020B90EF033FB06F08FFB08E00CF060FE0FF0F2FA47
:2014B0000420708001E00EF027FB3846BA4EA0602B68B760986980477060AF4880F8008050
:2014D0003946418014200FF0CBFBFF211422A0620AF0E8FDE01CFF2102220AF0E3FD14203E
:2014F0000FF0BEFBA54F38603868002114220AF0D9FD002000F052F940460DF047FBA048C9
:201510000188FF2906D1022101807822001D00210AF0C8FD032010F0DFF8042010F0D8F80A
:20153000052010F0D1F8062010F0CAF807200CF09DF8944E0820307006F1240010F0BCF894
:201550000CF026FA06F1360A05200A2152460EF07FFF38B10020C0F10901401C0AF8011B86
:201570000A28F8DB3078102108F0BCF82B68864909200DF10E025E68087001AB10200021FD
:20159000B047A06AE1690A260A309DF80E20761E00F8012BF9D1891EE161DBF80C104846DB
:2015B000884704F120002B68626A059040461E69DFF8D88104F120034146B04710B128681F
:2015D00080688047B8460EF00DFC5FEA000903D009F0B6F94FF0FF39002643E00298216996
:2015F00010F8062CA0F10C07032A03D1002939D0884737E0A16A9DF810C00A223046491E6B
:2016100011F8013F9C4506D0521E00F10100F7D14FF0FF0A01E05FFA80FA2868BAF1FF0F4B
:2016300000F108001CD038790DF0F2FCB979012904D0022904BF0299887001E00299087074
:20165000029950460EF02AFE0CE0C04641490010F84400209C1B002018190020C41300201C
:20167000006880472868C36904A902AA0DF10F0098470028B2D0D8F800007700C35B6BB9F7
:20169000761CF6B20A2EF8DB2BE0C046F816010001FA0000A1070100B81700200A2E20DA10
:2016B000DBF808008047D8F80010002231F807A0CA53DBF80C108847354850F8262026702A
:2016D0005146304690470646FF202070DBF808008047D8F800107A5A16437E52DBF80C10AD
:2016F00088470EF07FFB0746B9451AD007B9294FE069B84238BF071CDBF808008047814660
:201710002868016A206A8847626A28681F49059B521C6262C6683846B047DBF80C104846AF
:201730008847A768296860691431AFB9D8F800000A270026835B33B1096960698847296830
:20175000D8F8000014317F1E06F10206F2D107E0F81A00208FD7000009698847296814316F
:2017700009684FF0FF3088472DE7C046B1FF000019080100901B00202C170020F427002056
:20179000F8140020240C00200628002059F00000402E01008EC2F528942700202DE9F84F12
:2017B000DFF8BC13DFF8BC23DFF8BC5308700821002010600D23DFF8B40340F236320170DD
:2017D00043808280DFF8A8030560AC7EDFF8A4030470FF2CE97E417008BFFF292A7F827064
:2017F0006B7FC370AE7F0671ED7F457115D1FF2A08BFFF2B11D1FF2E08BFFF2D0DD1DFF83F
:2018100078130A7802704B7843708A788270CB78C3700A79027149794171DFF8601302782B
:20183000DFF85C83DFF85C93DFF85C730A70FF2543784B7082788A70C378CB7002790A7102
:201850004079487188F8005088F8015088F8025088F8035088F8045088F805500020CB49E3
:201870000880D9F83440CA49607808702278C9493A70A0780870A2681079C74A411E1170BE
:20189000E078C649C64A0870E068106008B90EF097FE2069C34E306008B90EF091FE30682D
:2018B000DFF804A301688847326852F8041F50468847BE48BE49CAF82000CAF82410606948
:2018D000BC49086008B90EF07BFEA069BA49086008B90EF075FEE069B849086008B90EF03C
:2018F0006FFEDFF8DCB2B74C9BF804000FF0B8F90028206075D09BF80500B34E0FF0B0F98E
:20191000002830606DD09BF80600DFF8C0A20FF0A7F90028CAF8000063D09BF807000FF09B
:201930009FF9AB49002808605BD039789BF80000891C484380B20FF093F9A6490028886020
:201950004FD03878002862D0BBF80210484380B20FF086F9A04A0028506042D038780FF0CB
:201970007FF99E49002808603BD0387840000FF077F99B490028086033D038781821484313
:201990000FF06EF9974A106058B3387840010FF067F99549086020B3387800010FF060F903
:2019B00092490860E8B1387800010FF059F990490860B0B13878302148430FF051F98D4AEB
:2019D000106070B18C483978007848430FF048F98A4A106028B138780FF042F9884908605E
:2019F00018B9BDE8F14F06F01FBE4FF0000B09E00FF0FEF800214180816001800223037149
:201A10000BF1010B39785FFA8BF08842F0D32268694F0120107121680D73206845732168E6
:201A30008D732068C57321680D7400212068457400202268D172A0222168487103212068CD
:201A5000C28001720720226850720021206881722821206801224182C2760020216848775B
:201A70000022206880F85E200121226811770120216881F85D0001223068027131680D73BB
:201A90003068457331688D733068C57331680D7400213068457400203268D1720022316839
:201AB0004871306882724FF420703168C88008818A7401213368D974DAF800201573DAF840
:201AD00000104D73DAF800209573DAF80010CD73DAF8002015740022DAF800104D740121A8
:201AF000DAF80030DA720023DAF800201171DAF800104B71DAF80010C88008818B7205207E
:201B1000DAF800209374DAF800103E4AC874106880473968054608688047396851F8042F97
:201B300000209047D9F80C101C4B0A881878364902430A802846354A136898470C213448EA
:201B50000FF0B6FD40460FF0AFFD0FF0A9FDBDE8F44F034800784FF4005107F0C3BD00BF78
:201B70006E4F0020044F0020B63F0050604E0020084F00202C4E0020E81200503C4E0020ED
:201B9000344E0020BC3101007B4F00200C4F00206D4F00206B4F0020724F00206C4F0020CE
:201BB000F04E0020F44E00207C4B0020710C0100910C0100F84E0020FC4E0020D827002063
:201BD000C41A0020104F0020144F0020184F00201C4F0020A0270020684E0020004F0020B7
:201BF000DC270020804E0020844E0020884E00208C4E0020904E0020B51B0020E0270020CD
:201C1000E4270020CC130020544F0020D0130020F84D00202DE9F04FCB4D05F10801284685
:201C3000ADF12C0D0CF082F8C84C04F10C0630460EF0A6FF01203146207500200CF03AFD93
:201C5000A060002800F0B381264602273C25B762224684F82C50012111623346374607F136
:201C70001C013D460E606A1D5A620FF03FF900B9FEE7AE200BF08EFFD5200BF08BFF8020BE
:201C90000BF088FFA8200BF085FF26200BF082FFD3200BF07FFF00200BF07CFF40200BF04C
:201CB00079FF8D200BF076FF14200BF073FFA0200BF070FFC0200BF06DFFDA200BF06AFF0F
:201CD00012200BF067FF81200BF064FFFF200BF061FFD9200BF05EFF25200BF05BFFDB2002
:201CF0000BF058FF20200BF055FFA4200BF052FFA6200BF04FFF20200BF04CFF10200BF023
:201D100049FFAE200BF046FF0CF0F4FF0BF0BAF9394601204870A9480EF078F9A84C4FF4D1
:201D3000E14060808849888000200EF0F1F800200EF0DCF8A348DFF890B201684FF47A771F
:201D5000B7FBF1F189B207FB01F0079000200EF0AFFD01467C4882880746891AB878029188
:201D700018B1084600F56160029002A805F09AFB06460DF0BDF901467448914A80789160FA
:201D9000002800F0DE8091486F4D07786978002F40F0D78000200129099012D0B0680D2800
:201DB0000BDA01290DD0B76827B1012909D00C2F07D104E00C20B06003E00C38B060099822
:201DD00000E001200AF006FDB06803A90BF0B8FE706804A90BF0B4FE306805A90BF0B0FE5F
:201DF000306901AC2146401C0BF0AAFEF06869460BF0A6FE6EA120460EF080FA69460EF0E7
:201E10007DFA0A90DBF808004FF0FF310FF044FC04F0B4FEDDF824804FF00409CDF8208048
:201E3000DDF820A06A48099D82441AF8017F05F12200099C069027F07F00802814BF0122C6
:201E5000099A069808EB04010D310BF0CDFE641C7800C7B2082CEEDD6D1C022DE5DD0898AB
:201E7000B9F1010908F1080800F103000890D7D1DBF808000FF00CFC01224EA03B211346B9
:201E900007F0B2F80A9C20460EF006FE099B4100012201EB8001C1F15F012046C9B207F024
:201EB000A3F8B0680A2808DA01279DF80C10099730208DF80C008DF80D1070680A2806DA65
:201ED0009DF8100030218DF810108DF8110030680A2806DA9DF8140030218DF814108DF8EF
:201EF00015009DF80C00099A00213038C0B209F0EFF99DF80D00112100223038C0B209F0D4
:201F1000E7F99DF81000272100223038C0B209F0DFF99DF81100382100223038C0B209F023
:201F3000D7F99DF814004A213038C0B207F054FD9DF8150054213038C0B207F04DFD0BF056
:201F5000A1F8002429E0C0465005002034080020DBF80400694600220FF096FB9DF8000007
:201F7000B0B1401E0DD0401E06D0401E14D1019800780DF0BBFF0FE0019800780DF0C8FFB2
:201F90000AE001981349008888800D4F788003E0019800680EF03AF8641CDBF804000EF005
:201FB000D8FFA042D4DC07980FF06AFBCEE6FEE72F00C04630303030303000C080E0352D35
:201FD000141200209031010020110020941600200C210100500500202DE9F84FC04CA178A9
:201FF000FF2904BF00200EF0EBFAA0780EF022FD044604F1680504F190062968086810B1B5
:202010000021E1830CE0A87B002804BFA97E002906D13078002801BF207F0128608CE08363
:202030002189E08B4118491C618120460FF024FB01281EBFAB480178012904D1218900201C
:20205000491CE08361814FF6FF77A87E01280DD1AA8B618920890FF00BFB38B12189608995
:202070004A1C93B298421BD0A88B0FE03078012816D17288618920890FF0FAFA80B12189AB
:2020900060894A1C93B298420AD0708892B2904206D03818608180B20FF0E6FA3F18E78301
:2020B00004F5967999F8040020B120890021401CE183608104F12E07A87E012811D1218932
:2020D000A88B4B1C9BB298420BD160810FF0CCFA8046B988288C01FB080820460AF0D2FABA
:2020F00001E0B7F80480B4F81EC022687E4ED2F80CE00CF1010000FB08F340F6C41000FB2D
:2021100003F18E44C2F80CE03668DFF8E0E13678BEF80080764AB609032E11D1D67BF60749
:2021300048BF4FF000080BD408F101081FFA88F6012E12BF668AB9F8066006F2DC5600E0B8
:20215000668A5E434FF4C87AB6FBFAF6761C6661AEF80080A3614FF0180894F806A084F828
:2021700020C008FB0AFADFF88CC1DCF800E023680EF1080656F80AB0C3F810B094F806A043
:2021900008FB0AFACDF800A0D3F80CB0D4F814A0ABEB0A0ADDF800B046F80BA094F806A072
:2021B00008FB0AFA56F80A609E600EF10C06A37908FB03F30EF10C0EF65C06F0F00646F09F
:2021D00002060EF803604FF0000ADCF800E0A6790EF1020308FB06F623F806A0464BA679EE
:2021F0001B68760103F1140AD4F814B05AF806A00AEB4B0A03F1140B4BF806A0AD7E022D9B
:202210000BD1A5796D0103F1140697F800B056F805A000FB0BAA46F805A0BD88D27BA779C1
:20223000D60736D508FB07F70EF10802D659A6F5A86A0EF1080646F807A0A77908FB07F7AD
:20225000D2592768511A3961BA6003F11402A1794901575807F5F667575003F11401A27954
:2022700052018958C9F800106843244AA179156B03EB41162968401AA0F51670F061204991
:20229000A07903EB40100B78012B14D10121C17214E003F114027F01D1592A464243A1F5BB
:2022B000E661A2F516729142DED3082120460FF0D7F9012011E0916A4A78C272A179DCF8D5
:2022D000000008FB01F281182268516007200D490870204609F020FF0020BDE8F28F00BFAC
:2022F000684E0020784F0020084F0020FC2700205C4D0020804E0020844E0020BC310100C0
:20231000734F00206F4F00202DE9F84F0C46E00788B00BD50EF07CFC28B100218160B348F3
:20233000006800B1804784F001005CE1A0070FD500210023069105910491039302910191AF
:20235000009101223C200FF087F984F002004AE11D256007A64EA74F40F18A8000210791B6
:202370008B46A5488178FF2904BF00200EF028F9386890F8A0000EF05DFB80463868C07AAE
:2023900098F82691022818BF032808F5907A06D106F10D000FF05CF908B906F1070B514623
:2023B00048460FF051F988B33868807A002818BF012804D1314650460FF042F904E05246A1
:2023D000494630460FF038F9FF2834D005FB00F906EB090506225146E81D0EF02DFA16F89E
:2023F0000900396840F00209E81D07900622887E00F0010088F8260105F1010A386800F1F4
:20241000140108F590700EF017FA14E0514648460FF00EF978B15246494630460FF00CF9A2
:20243000FF2808D006F10D01454348190FF010F908B949F0020908F12C004B4601780691CC
:202450004289120905920122B8F822100491C0880799029140080390CDF804B0CDF800A021
:20247000002098F806100FF0F7F884F00400BAE020060FD5002100230691059104910393E0
:2024900002910191009101223B200FF0E5F884F08000A8E0E0044BD5F11D06F10D000FF08B
:2024B000C3F83868017A012918BF042931D1C17A02291EBF0329817E01292AD1817E00F183
:2024D000140230460FF0B8F8FF2811D04543354405F10D000FF0BCF850B9E91D05F10D00E0
:2024F0000FF0A2F838680622E91D14300EF0A4F93868C07A022818BF03280AD106F10D00A1
:202510000FF0A6F828B938680622F11D0C300EF093F93A4842683A4800784FF480510CF05B
:2025300003F810B18E2009F0C1FC84F480505AE0A00505D50EF02CFC324901200860FEE75B
:20255000600504D507F0C7FC84F480604BE0600405D5812009F0AAFC84F4804043E0A10472
:2025700040D5294D286810B100200EF029F8274E4FF0FF3028600FF053F83168244D51F828
:20259000202F684690472349234B486A8A6A009001920293C86A0268086A0392ADF81000C7
:2025B0000A6B1178002904BF5068002805D19068002804BFD068002806D029705068686039
:2025D0009168A960D068E86029463568134A2E6813486B46B0471349086004F043F984F4FB
:2025F000005000E0002009B0BDE8F08F204F0020AC450020104F0020684E0020784E0020C3
:202610006E4F0020FC002043044F0020F04E002068450020B8170020110C01002C4D00202A
:2026300098260020EC4E00202DE9F04F09AFADF13C0D08900A92388809911E46ADF81800AF
:20265000101C08BF002000F07581017800274FF0010B401C4FF0FF39B846DA460A9061E1B9
:20267000252940F056810178401C0A902D2918BFADF8068004D10178ADF806B0401C0A908F
:2026900030291CBF4246434604D10178401C5A465B460A902A29CDF800804D4617D10493B6
:2026B00030680A9BCDF80890C01C20F00300001D306050F8044C1978002C009403F10100F6
:2026D0000A9018D5ADF806A06442009413E044460AE0600000EBC4004018A0F130040A98A9
:2026F00001780094401C0A90302901DB3A29F0DBCDF8089004932E2929D10178401C2A29F7
:202710000A9011D13168CDF80880C91C21F00301091D316051F8045C002D48BF45460178B5
:202730002B46401C0A9011E0454643460AE0680000EBC5004018A0F130050A9801782B4671
:20275000401C0A90302901DB3A29F0DB02930AB1224604926C2904D04C2918BFADF80480E4
:2027700004D10178ADF804A0401C0A900BA8CDF80C800FAB07906429059300F082806929BE
:202790007FD0BDF818C075296DD0782969D06F2965D070294ED063293ED0732922D00A984A
:2027B000401E0A90099801281AD966490C68B5F1FF3F03D0A84288BF6D1C05D86FF0004143
:2027D000814294BF0D1C099D029508A80AA932466B46A04709993F18091A0398099165E064
:2027F000454617E03068C01C20F00300001D306050F8040CBCF1010F014608B94FA00146C0
:2028100007910EF049F90390B5F1FF3F4FD0A8424DD9039528464AE03068C01C20F0030073
:20283000001D306010F8040C8DF82C005D46039558463CE0082035680490E81C20F00300AD
:20285000001D306050F8041C082210230FA80AF031F8401E079040210170079823E0082388
:2028700002E0102300E00A233068C01C20F00300001D306050F8041CAA42BCBF2A1C049247
:202890000DE03068C01C20F00300001D306050F8041CAA42BCBF2A1C04926FF009030FA83A
:2028B0000AF008F807900599081A0390009C241ABDF8065000945DB906E008A8202109AA0B
:2028D0000DF05CF97F1C009C641E0094F5D50398401EB0F1FF3F03900FD1BDF80600012850
:2028F0001CD10098401E009018D408A8202109AA0DF044F900987F1CF4E70798017809AAB2
:2029100008A80DF03BF90798401C079003987F1CDEE708A809AA0DF031F97F1C0A980178F9
:20293000401C0A9000297FF49BAE089808B14146017038460FB0BDE8F08FC046286E756C7D
:202950006C2900C0A0310100BB482DE9F84F0025BA4CB849056094F8E200002800F06581E3
:20297000012800F02F81B64E02283CD0032840F05C8151F8250CD4F8B8100029A0F5C06020
:20299000C4F8D400B8BF49420028B8BF4042814226DA4FF08057D7F8A4014568B4F8BC0012
:2029B00030214FF47F42082300903046A847D7F8A4014568B4F8C00004214FF4F80212236E
:2029D00000903046A847D7F8A401B4F8D070456820214FF440620A2330460097A847012570
:2029F00084F8D8501CE151F8258C0EF0D1F92F4600B901273946934F38680028FCD0B14622
:202A1000012609F10409D9F82CA03E6009B10EF0C5F9CAF30720C4F8BC000EF0B9F9AA46CB
:202A300000B9B2463B68002BFCD0D9F800B0BAF1000F3E6001D00EF0B1F9CBF38440C4F8AB
:202A5000C0000EF0A5F9AA4600B9B2463B68002BFCD0D9F81C90BAF1000F3E6001D00EF02B
:202A70009DF9C9F38120C4F8D000B8F5C061C4F8B81000F09C8094F8D80068B9C4F8D41044
:202A9000D4F8C000C4F8C800D4F8BC70C4F8C470D4F8D030C4F8CC30D4F8D400D4F8BC3052
:202AB000002854BF02226FF0010204F1C8010F6800EB40008018421000EB927207EBA20078
:202AD0000860D4F8C810C4F8C43000291CDD1E293CDDD4F8CC0030B93429B4BF15391E21CA
:202AF000C4F8C81025E02A29BABFD4F8C8000B381E20C4F8C800D4F8C4003F28B4BF401C02
:202B10003F20C4F8C4001FE0D4F8CC00032812D011F10B0FC6BFD4F8C8000B30301CC4F8AA
:202B3000C800D4F8C4000028C4BF401E051CC4F8C450032508E011F1150FC6BFD4F8C800E4
:202B50001530301CC4F8C800C4F8CC504FF08057D7F8A401B4F8C43030214FF47F4245684C
:202B7000374800930823A847D7F8A40104214FF400321123456832480096A847B4F8C86057
:202B9000D7F8A40104214FF4F802122345682C480096A847D7F8A40120214FF440620A23AD
:202BB000B4F8CC60456826480096A84701E084F8D85040F2FF50404502D8801C40452FD206
:202BD000082030E051F8251C1F4F4BF2F5204843060A3868C0F3814001280CD11B480068E3
:202BF000006880470BF05AFF0EF0DEF83111C010484306EBE03694F8E50030B914480068AC
:202C100020F07F403618760801E084F8E5501148310C0660012741600F4D8760287808B90E
:202C30000B2000E0052084F8E40003F053FDBDE8F88FC0462D400C402C500C400C100020C2
:202C500000A00C4000800C40B43F0050EC010010102009403C600C40E92F01002DE9F84F95
:202C7000B34D696884B0019121B905B0BDE8F04F0EF0D2BC0978DFF8BC82AF4EDFF8BC92F6
:202C9000DFF8BCA201291CBF0229042946F2A81741F64C5B05D0402918BF802900F09680F9
:202CB0003CE10EF0B7F80028FAD00198007804F05BFE0090446814B900200DF081FC9AF8B5
:202CD000010000285CD000F043F90DF0B3FE02900168009801914F6809F032FF022825D090
:202CF00000990A78012ADBD196490A68137A19F80310317018B90EF08BFC5844A0602069B4
:202D1000C17E01F0EF01C1762069C17E41F08001C1762069C17E01F0F00141F00201C17686
:202D30002269B96888484118D1614BE001980178802911D10820854930700A78012A03D09E
:202D50009AF80100022801DB38690CE0D8F828003A690178D1720DE07C49072030700A78EB
:202D70003869012A02D10121C17203E0D8F828104A78C2720298817901988AF80210C8E005
:202D9000009800288CD00199009A0078914205D101281CBF00200DF013FC15E0012840F034
:202DB000BD80684801680A7A19F8020030700EF02FFC3918A0680EF027FC18B90EF028FCE0
:202DD0005844A0600120A8700098A2E09AF8010000287AD000F0BCF80DF02CFE0446206852
:202DF000029047689AF802000DF024FE03900EF017F810F0070F3DD0A87804F0B5FD0190B5
:202E1000416801980091029909F09AFE022831D001990A78012A2AD14A490A68137A19F893
:202E30000310317028B90EF0F3FB83440098C0F808B000980069C17E01F0EF01C176009842
:202E50000069C17E41F08001C17600980069C17E01F0F00141F00201C176009AB9683A4807
:202E700041181069C16101210198A97051E000200DF0A6FB0398A04225D002983349027889
:202E9000802A12D1082030700978012903D09AF80100022803DB38690121C17210E0D8F8FE
:202EB00028003A690178D1720AE0072030700978386901290EBF0122D8F828104A78C27290
:202ED000A0798AF80200029823E00DF0A9FF10F0070F29D0A87804F047FD04462078D4F8EE
:202EF0000480012820D117490868027A19F8021031700EF08DFB3918D8F808000EF084FBE8
:202F100020B90EF085FB5844C8F808000120A870204605B0BDE8F04F06F000BD05B0BDE8A1
:202F3000F04F00200DF04CBB05B0BDE8F08F00BFA0270020BC3101006F4F0020289A011000
:202F5000684E0020104F0020F0D8FFFF734F00202DE9FE4FB24C617811B900200DF030FB18
:202F70000EF056FB4FF00008074607F6C417C246AC4DDFF8B49228E050460DF05BFD064629
:202F90007079F0B12968B07901F80800394608F101005FFA80F830460EF032FB30680178E0
:202FB000402902BF06F182000178012902BF41887289914205D1B169C088411830460BF061
:202FD000D5FE0AF101005FFA80FA99F800008245D2DB6178884505D000200DF0F1FA822015
:202FF0000EF00AFB6078012840F0F180002701E07F1CFFB299F80000874280F2E28038461C
:203010000DF018FD064670790028F1D02968B0790A7890421CBF00200DF0D2FAB079FDE098
:20303000286810F809000DF005FD00684268DAF808109068814204BF3E4609F1010900F0EE
:20305000D480D6E0286890F800B001224FF4C0710FE0636803F5AD76835C01FB03F901FB4F
:203070000BFE36F809C036F80E60B44538BF9B46521CFBB29A42ECDB4FF6FF700EF0B8FAB1
:20309000064658460DF0D6FC68490068D0F804A00868D94630F8192060684FF4C07300F1C3
:2030B0000E0103FB09F3C85AB2EBD00F52D2720840F6C4104243009200275D4A01900292A7
:2030D00017E058460DF0B6FC01680A78802A03D1DAF81030009A5A610978402908D102996E
:2030F00080790A6802EB4011009800F5A060C8617F1C47452EDA2868C05D8345F8D00146AE
:203110004FF4C073594363685A1803F5AD73D289595A53088B4202D2521A9045E8DA0DF02E
:2031300089FC01684A68019B9168DAF808207008A1F6C41103FB00200EF066FA0028C0D038
:203150003A48006830F81910491C20F81910286810F807B0296808780DF06CFC002600682B
:2031700047684FF4C079464551DA2868805D0DF061FC0068296842688B5D606809FB03F34A
:20319000034403F18201087830B15889B1F802C0401C80B2604508DA887B01280ED15889B3
:2031B000098A401C80B2884208DB6EB3B968906801F5C241A8310EF027FA28B3761CF6B2F1
:2031D000D1E700200DF0FCF982200EF015FA617828680EF009FA286800780DF02BFC0026AA
:2031F0000068D0F804A04FF00109771CC145FFF617AFF6B2002E1CBFF8B200287FF422AF87
:20321000286890F800B037E7296811F806B007490A6800205B4622F813005846BDE8FE8FE8
:20323000684E0020004F00207B4F0020DC270020844E00202DE9F84FDFF8CCB20F460546E8
:20325000F80B80F01281AA4EDFF89C82B80F80F0C480B80880F0B8803809C0F03981A048F5
:203270000178090980F0AB80007830F07F0040F0A680684607F074FA012803D100980028DB
:2032900000F09D8097480078002840F0988001240025E8B20DF0C4FB48B1837A3BB18472D2
:2032B00090F9090004FA00F0C0B20BF0EDFD6D1C032DEED345464FF0030A05F1AC0085F8B7
:2032D00010A00DF089FEDFF83092002309F11401984608680B6051F8080C41F8088C834930
:2032F0001A4605F134000DF087FE3068006B8047AA68A969801A000BC0F1FF328A422CBF86
:2033100001444FF0FF31A961287F20B1E868A969B1EBC02F25D90CF021FF414600B12146C1
:20333000E1B1744840F60901018043464380417B04F00F0221F00F010A434273017B03F0CF
:203350000F0621F00F0146EA0102027343604E46F3613060418811F4406FFBD02C774346F0
:20337000AB616649086820F0020040F400700860634A42F804AC41F2300696601460502317
:20339000936014604FF4CA6696601460022042F80C4C44460C600BF033FF112006F002FADF
:2033B000287818B9686838300DF032FE687F18B16C7705200BF024FF524868612C7409F055
:2033D00053FF27F0080783E005F0A6F940467430006808B927F002077AE00DF005FE344627
:2033F0008146606D0068014604208847C8B1287CB8B14046083006689EB12068EC68006B3F
:203410008047801BE860010BE960A14202D209194908E96040F6C41088422CBFB1F5FA7F4C
:20343000E86048460EF0DCF80BF012FD90B1A8696FF4807100224FF0007304462846A047B1
:2034500040466C300068002808BF47F0020701D009F00AFF686900214FF0806304460A4622
:203470002846A04727F0005732E00DF0BDFD59460E684EB306F1280106C90A234FF0E0451A
:203490000B40154008BF002B1ED106F1280191E8300006F1280393E8060006F12803AA4320
:2034B000A14383E806000EF09BF8B16871B1002D08BF002C0AD03069B6F93C10B2682B46C2
:2034D00016462246B04701E00EF08AF827F4804727B15846394650300DF0A2FDBDE8F88FA1
:2034F000FE270020591D0020C01B0020CDCF00008C0100105C270020001004400000046052
:203510000C41044061920000401C00202DE9F84F04462068002800900CD43C2190FBF1F10A
:2035300000290DDDD4F804806FF00040401A40450DDA31E13C21C0F13B00B0FBF1F0414249
:20355000D4F80480C1F10040404500F32581009818EB0108A0EB8110C4F8048000EB81008F
:20357000206000900DD43C20B8F13C0F98FBF0F10DDBD4F808906FF00040401A48450DDACD
:203590000AE13C20C8F13B01B1FBF0F04142D4F80890C1F10040484500F3FE8019EB01096E
:2035B000A8EB8118C4F8089008EB8108C4F804800CD41820B9F1180F99FBF0F30CDBE1682F
:2035D0006FF00040C01A88420CDAE5E01820C9F11701B1FBF0F04342E168C3F100408842CB
:2035F00000F3DA8020696269DFF8B4C1A9EB03194FF0640BC9184FF4C87EA9EBC309DA4686
:20361000C4F80890AEE05219A0EBC50000296261A0EB850040F3868001284FF0000611D178
:2036300012F0030F0ED102F26C7797FBFAF303FB0AF3FD1A05D197FBFEF303FB0EF3FF1AAE
:2036500000D1012683005CF803505CF80370AD19BF198D4262DB20610228E16002F26C7EFD
:203670004FF0000512DB12F0030F0FD102F26C77564697FBF6F070433E1A06D14FF4C876C7
:2036900097FBF6F070433F1A00D101250CEB0300036B5B185B195B1EE361DFF808A1036BA5
:2036B00040F26D165643AEF101005B1847105B1990FBFBF200EB977C4FF4C875002106EBC6
:2036D000AC065B1E90FBF5F0B61A361807220120F518A5F5E6750B46EE17401941EB0601F3
:2036F00009F0B0F800994FF4616000FB09F0002B0AFB050000EB8810A0EB8800084411461A
:20371000B8BFC91D284AA1615168B2F9002045F260430818C01A2262BDE8F88F401CC91B80
:2037300020611FE0401E0025012812D112F0030F0FD102F26C7797FBFBF303FB0BF3FE1A0B
:2037500006D17346764697FBF3F37343FF1A00D1012500284CBF0B23031C20615CF8233027
:20377000C918491900280BD40C230C2890FBF3F50CDB6FF000435B1B9342BFF644AF0AE0B3
:20379000C0F10B030C25B3FBF5F35D42C5F1004393427FF738AFE1604FF0FF30BDE8F88FEE
:2037B000B82A010080510100481A00202DE9FC41A0F2013714468846022F40F233819B4E7D
:2037D0009C493F1F0F2F04D9143F4BD0BF1E1CD011E0DFE817F0CF00C9000E01FB00C10022
:2037F000B9002701AF00A700100010009D008F007F00740065002D2880F21481B8F1020FC8
:2038100040F010818849238808E1B8F1010F40F00981F078012800F005813246207811795E
:20383000107181B9002800F0FD805078012800F0B580042800F0B280062800F0AF8005284A
:2038500040F0F080AAE02078002840F0EB805078032800F0B180072800F0AE80052840F015
:20387000E180A9E0B8F1010F40F0DC802078012840F0D88006F1EC000DF0E8FB002840F0A5
:20389000D1803446002004F13A0108F0C1F8002840F0C88004F1C800FCF7E2FFBDE8FC81F9
:2038B000B8F1020F40F0BE8020880A28C0F2BA80B0F5486F00F3B6800E46B61C17E0B8F1BF
:2038D000020F40F0AF802088B0F5FA7F80F2AA800E460CE0B8F1020F40F0A48020880628E2
:2038F000C0F2A080B0F5486F00F39C803E363080BDE8FC81B8F1020F40F094802088062861
:20391000C0F29080B0F5486F00F38C803C36EEE7B8F1010F40F086802078062880F282800A
:20393000454E0EE0B8F1010F7CD12078042879DA0A3606E0B8F1010F74D12078082871DAA2
:2039500009363070BDE8FC81B8F1010F6AD12078042867DA0836F4E7B8F1010F62D12078C0
:2039700004285FDCF61DECE7B8F1020F5AD120880E36BCE7B8F1010F54D13079012851D0A5
:2039900032462078D178D07071B900284AD05078012803D0042818BF052843D190690121EF
:2039B000FDF72AFABDE8FC81207800283AD15078022818BF052835D110780BF095FF1C497A
:2039D0000246102001F09AFDBDE8FC8106F1830500211F22284608F065FB424621462846B1
:2039F00007F09CF844463078B4710BF07DFF002311E006F1640500211F22284608F052FBD5
:203A100042462146284607F089F84446307874710BF06AFF0123009408490195024610202F
:203A300001F06CFDBDE8FC8115F30000980D002099450110D80D0020D20D002009450110DB
:203A50002DE9FC418E488F4A04788F488F4B90490D2C6FD8DFE814F012010E000E000E00C6
:203A70000E000A010A018E000A01C900C900E700E700EE00106041F204478648864DB0F8F4
:203A900002C08649BC451FBFB0F81AE0BE45B0F83280B8454FF4A0561ED181480068D0F889
:203AB00000C09CF8040003280CF1080E0BD1DEF80E0000281CBFBEF81800002803D01F8035
:203AD000784911608AE0022C1CBF1E800D46156000208CF8040081E0BCF1000FA3F800C0AB
:203AF00041D0BCF1010743D0B7F1010C3BD040F2FE37BCEB07071ED0A7F1040CBCF1010FAE
:203B100020D94FF47F77BCEB070C1DD04FF44067BCEB07070FD0BF1E012F0CD93F1F0AD014
:203B30007B1E012B0ED940F2F937DB1B012B1AD91B1F09D09AE0022C01D115604EE01E8084
:203B50000D46FAE7584DF8E7584B1C68257A012D05D141F20243438043834386F0E746806C
:203B700046834686ECE700200CF02AFD832081E08F207FE04E498978FF290CD01060182034
:203B90004C4C41432068851C40F204466C5A1C80A41B012C484B71D94FF47F76A41B0FD053
:203BB0004FF44066A41B032C84BF641F012C0BD9A41E012C62D940F2FD36A41B08D103E03D
:203BD000801C41F201444452136004F079FF05E000200CF0F5FC85200DF00EFDBDE8FC41CB
:203BF00036480078012105F07DBD40F204424888188090421CBF41F2084290423ED041F64D
:203C10000402904211D12E4C2E482F4B00680025CDE9004502222D4C256855F8086FB04703
:203C30002B4908802AE04888188000200CF0C8FC85201FE04888188002280DD940F2044292
:203C5000801A1BD040F6FC72801A05D0083815D04FF47F72801AE8D1887B801CC2B2B52A1E
:203C7000A8BF662088730020488007E000200CF0A7FC8420BDE8F6410DF0BEBCBDE8F381AE
:203C90006F4F0020204F0020BD0F0100504F0020CC4C0020204A0020B1540110615A011077
:203CB000F44B002059550110755B0110104F0020684E0020804E0020313901106E4F00205A
:203CD00002000080EC4E0020ADF20000F04E0020424F00202DE9F04F8246DAF80070DAF819
:203CF00004600C465FEA0208ADF11C0D14BF00214FF0FF31DFF8409248460CF0FEFE00282A
:203D100018BF0B2040F0158100258F488C4905708A48FC6052460DF06FF9317B27200DF06A
:203D30006DF9B8F1010F07D0657002200BF062FC06200BF05FFC01E001206070207801281E
:203D500040F2AA80801E012868D9801E012833D9801E012800F2DE800DF046F983464FF0C1
:203D7000805000F5EE77D0F8DC01A378466A009321782846062908BF0120019001200290A4
:203D9000A068228AE1686368B047814658460DF027FCB9F1000F40F0BF80B8F1000F02D01D
:203DB0000CF01AFD02E050460BF0C6FA002800F0A3803868806A2AE00DF016F983464FF0CA
:203DD000805000F5EE77D0F8DC01012306680093A168A27860682478AC46042C08BF9C468D
:203DF0006346B047814658460DF0FAFBB9F1000F40F09280B8F1000F02D00CF0EDFC02E070
:203E100050460BF099FA002876D03868406880474C49C1F8B0510D6081467DE00DF0E4F838
:203E300083464FF0805000F5EE77D0F8DC01E38A86690093E0680190208B0290A0780390EB
:203E5000207D04900121059122782846022A08BF081CE1786268A368B047814658460DF0C3
:203E7000BFFBB9F1000F57D1B8F1000F02D00CF0B3FC02E050460BF05FFA00283CD03868C2
:203E9000006A80475FEA000946D1E078A168E28A236907F043FEBFE70DF0A6F883464FF09E
:203EB000805000F5EE76D0F8DC01E38AC7680093E0680190208B0290A0780390207D294628
:203ED000049001200590257805B9014608466268A368E178B847814658460DF081FBB9F1E3
:203EF000000F19D1B8F1000F02D00CF075FC02E050460BF021FA08B914201AE03068406904
:203F100080475FEA000907D1306802692169E078904781E74FF0FF39B8F1010F05D0022055
:203F30000BF06EF906200BF06BF903480DF070F8484607B0BDE8F08FE815002020160020FE
:203F500065FC00005045024004280020FEB5954E954F144602460025A2F58062182A1AD8DF
:203F7000DFE812F01601100109010101FA00F400ED00E8001900CC00C500BE00B500AA00AA
:203F90001900190080006F00680054004C00420039002C0024002D2880F28C80022940F0EF
:203FB000898021880BF0AEF90546F9E0012940F0F680002C00F0F3801136BEE0102940F0CC
:203FD000EE80002C00F0EB8030465030102221460CF032FCE4E0012940F0E180002C00F088
:203FF000DE8031468E1DA8E0262940F0D880002C00F0D58006F160002622E8E7012940F099
:20401000CE80002C00F0CB80761D96E0602900D13CB9012940F0C380002C00F0C0800D3647
:204030008BE006F18600214660220CF005FC01207073B5E0012940F0B28020780DF0CCFA22
:20405000AEE0012940F0AB802078022800F3A7800C3630702078022814BF281C01200DF088
:20407000B7FA9DE0072940F09A80611C684606220CF0D0FA207869462A4605F02DFF04464D
:204090000A2C17DA0DF0A0FA70B9204603F0A4FA3C462078002847D16088C0F5805080B239
:2040B000B0F54D7F40DA3AE03246012002F12C06305575E0022573E0012970D1B07B21780A
:2040D0000028B1736CD1207801282DD068E0012965D12478072C62DB102C60DC0B3648E0F4
:2040F00001295CD124780A2C59DA093641E0012955D12478022C52DA08363AE000294ED10E
:204110000DF062FA98B90CF037FC3C46207858B96088C0F5805080B2B0F54D7F04DA0CF0A1
:20413000B7FD657003F046FD09F032FC38E001240F361EE0012932D10A36247819E00129DD
:204150002DD12478022C2ADAF61D12E0102926D1334603F1400039E7012920D12478022C9C
:204170001DDA361D05E0012919D12478042C16DCF61C347014E0012911D12478022C0EDAC6
:20419000B61CF6E702290AD120881436308007E0012904D12478022CD8BF761CE9DD1825DC
:2041B0002846FEBD240C0020901B00202DE9F04385B011F8017B0446082F04F1FD0004F140
:2041D000FC0804F1760504F5A076844A844BDFF8149213D0092F21D00F2F2FD0112F01BFE9
:2041F000287801286878102840F0D5800A78327648787076012184F83D11EBE00025521C2F
:204210004E5D5F5D3E434E55575D3E4046556D1C082DF5DB204608F05DFC74E00024571C06
:204230000D5D1E5D35430D553A5D15400555641C082CF5DB022088F80000CBE098F8010007
:20425000820704D410F0110F57D01A2266E008784A7800EB02203080CA78887800EB0220D6
:2042700070804A79087900EB0220B080CA79887900EB0220F080087A30724A7A887A02EB25
:2042900000227281C87A0A7B00EB0220B0818A7B487B00EB0220F0810A7CC87B00EB0220D8
:2042B00030828A7C487C00EB022070820A7DC87C00EB0220B082487D897D00EB0120F08220
:2042D000494801788A0658BF1A2212D504F5A670049071890391307A029021890191F088D9
:2042F0000090B38872883188204608F0B1F8E0B11E2298F80100410710D40F2088F81500D7
:2043100020460DF05DF9002864D199F8000005B0BDE8F0434FF4804105F0E4B9204605B0A8
:20433000BDE8F0430F210DF047B97088A882B188E9820221F0882883297400206882A18E86
:20435000A88AC91DE981618EB0EB510F02BFE88AA18E884202BF288BE18EB0EB111F18D01F
:204370002878012804BF68780F2805D0687918B10F21A972FE2127E0FC2120460DF018F909
:20439000F0880090B38872883188A0790DF00CF920E0102118E0491E20460DF001F9032FDD
:2043B00018D1A878042818BF0D2813D16E78142E18BF0E2E0ED12F7820460DF0EDF8012F8F
:2043D00006BFAE72FD213146204605B0BDE8F0430DF0EEB805B0BDE8F08300BFEC4D0020D8
:2043F000C82700206E4F0020144E002010B50B7884074CBF43F0020303F0FD0304064CBF21
:2044100043F0800303F07F0304074CBF43F0080303F0F70384064CBF43F0200303F0DF0360
:2044300010F0AA0F0B7003D0107840F00C0003E018B9107800F0F300107010BD2DE9F843E4
:204450000D4600272878022814461E4667D1696808784978DDF8208000EB012080B25FEA04
:2044700008021CBFB0F5285F0B205BD14FF42851401A08D0401E21D0401E2FD0401E25D0D7
:20449000401E31D04BE0DDF82490E8680CF0DAFD80B2A0EB08024A45BCBFA0EB08001FFA59
:2044B00080F909EB0800162806DAA6F800904A46E86800EB08010DE00D2732E0E86800884C
:2044D000022131802070000A60702AE0062030800622E96820460CF0AFF922E00120308058
:2044F000E9680A7822701CE0E868B0B1082131800288227003881B0A63704188A17042887D
:20451000120AE270818821718288120A6271C188A171C088000AE07103E0308001E0378060
:2045300001273846BDE8F2832DE9F0470F46814638780024022890461D466DD17868089E47
:2045500001784078DFF8D8A001EB002189B24FF42852891A06D0491E29D0491E4ED0491E01
:2045700039D059E0F8680CF06DFD80B2B04204D3A919162903DB0D244FE007244DE0FB682E
:204590002A46414698190CF057F9AD19F868ADB2C5F11602002140190CF052FDDAF800002D
:2045B00000281CBF0268002A37D0002123E08EBB022DE0D198F8000098F80110FA6800EB82
:2045D00001201080DAF8000000281CBF0268002A23D001210FE0EEB9062DCCD1F8680622AE
:2045F00041460CF029F9DAF8000000281CBF0268002A12D00321484690470EE056B9012D07
:20461000B9D198F80000002813BF0128F9680870802402E00B2400E001242046BDE8F08738
:20463000EC2700202DE9FE4FDFF828928B4682464FF0FF31D9F8080000920DF02DF8834CDF
:20465000002621200227207104F11C08A662E51C276280206662414628703C2084F82C00F3
:20467000A068C8F800500CF041FC00990FF2CC1901910028CDF800B000F0D78080202870AC
:20469000C8F80050276266623C21A662334684F82C10A0686B7041460CF028FC002800F071
:2046B000BC8080202870C8F80050276266625F21A6623C236970A06884F82C3041460CF0F2
:2046D00015FC002800F0A18080202870C8F80050276266622221A6623C236970A06884F8E0
:2046F0002C3041460CF002FC002800F0868080202870C8F80050276266623C21A662334638
:2047100084F82C10A0686B7041460CF0EFFB00286BD080202870C8F8005027626662042160
:20473000A6623C236970A06884F82C3041460CF0DDFB38B947480068092132464B460BF0D8
:204750005EFAFEE75046C1004FF0400B3834B84633464FF0010A01EB001189463C48009A14
:204770004FF00C0C09EB000E1EF8016F002026F07F01802910D1019901290DD01918CD105B
:20479000690101EB8511891809194F7800F007050AFA05F53D430EE01918CD10690101EBC7
:2047B0008511891809194F7800F007050AFA05F585F0FF053D40401C84F800B076000828AB
:2047D0004D70F6B2D3DDBCF1010C02F10102CBD1B8F1010809F10C0903F10803BED11D48B4
:2047F00080680CF055FFBDE8FE8F1A480068092132464B460BF003FAFEE716480068092175
:2048100032464B460BF0FBF9FEE712480068092132464B460BF0F3F9FEE70E480068092102
:2048300032464B460BF0EBF9FEE70A480068092132464B460BF0E3F9FEE7C0464552524FB4
:2048500052204F43435552454400C0463408002024210100201100202DE9FE4F05467B4867
:20487000002400680094C00905D37948007810B920200AF095FD012D40F0E280DFF8009270
:20489000D9F8DC00012840F0D8800220C9F8DC000BF036FF01200AF083FD5FEA000805D0FA
:2048B0000120C9F8DC000BF037FFCBE00CF0B4FBA34602906748684DC0F800B0A86A0168E1
:2048D00001208847012804D1584608F06FF9012000906248624FC0F800B0386811200CF09B
:2048F00075FA00B1012410200CF070FA08B144F002040F200CF06AFA08B144F004040B202B
:204910000CF064FA20B12868564E016B308888470A200CF05BFA20B12868534E016B308894
:2049300088475248012606602868816944F0200088474F4806600CF043FA00F0010101911A
:20495000400814D2286A81684A4888478246BAF1040FF7D0BAF1010F04D1286A4268454897
:20497000032190474449086820F003000860584600F088F82B683868986B804701980128E7
:204990000CD0BAF1010F04D1286A42683948314690473949086840F0030008602F48066026
:2049B00028684169204688470B200CF00FFA20B128682C4BC16A188888470A200CF006FAB0
:2049D00020B12868284BC16A18888847274806600322C9F8DC20264BC3F800B02868416B8A
:2049F000204688470128F9D1386804200AF0D8FC0446184806603868144800688009FBD322
:204A10000098012802D1304608F0D0F80CF0C6F908200AF0C5FC07460298C9F8DC600CF03E
:204A3000B7FD1648008807F0BDFD0BF075FE57EA040018BF4FF0FF3804E06FF0040801E0EB
:204A50006FF001084046BDE8FE8FC04614100940F41000200C400940B801001000022243CA
:204A70002C200940EA2B0100E62B010028200860800104430040034024220840E42F0100CC
:204A90000C1000202DE9F84FDFF804B20746ABF13500DFF8F0810068800880F0E2807548FB
:204AB0000068006880477E490831D1F8009000254FEA29715FEA995201F101010AD2C0F149
:204AD0003E0210F10A0F4FEAE202D8BF08229142B8BF111C684BD3F87C21C2F30462162AA1
:204AF000A8BF203A1B68C3F30443162BA8BF203B9A465218162A05DA12F10A0FB8BF6FF007
:204B1000090200E015225D4B5D4E02F01F0141F4F8511980316811F0030F18BF0125C9086D
:204B300028BF45F002050FB145F00405434693F90710411A052904DA9979A94208BF9988CC
:204B50006FD0DFF844E10F28A0F10F0829DB08EB0011A1F1F0084FEA28210091072984BF13
:204B700007210091062988BF06215EF821600424774604EB81043C594FEA950CA41BEE087B
:204B900004F0FF0124BFC4F3072631446F08AE0824BFC4F3074631446E0828BF01EB14618E
:204BB00004E000214FEA950C6F080091009C5EF824E05FEA5C060EF0FF0424BFCEF307268B
:204BD00034447E0824BFCEF3074634446E0828BF04EB1E64009E89B2A8EB06267143803193
:204BF00004EB1124AAEB02010029D8BF0121342209F0FF074A4391B24FF6FF727943B1FBC4
:204C1000F4F18A4238BF111C802889B2998005DA10F1800FB8BF6FF07F0000E07F20D87127
:204C30009D711A4800681F2918604FF0000008D340F2FF128A4206D24908401C8A42FBD384
:204C500001E01F219980134F0F39090940EAC10047EA0001CBF8FB1F0026CBF8FF6FBDE858
:204C7000F88F0D490D4F434608200F609B1D1870BDE8F88FEC0100103C1100506E620840AD
:204C900024220840D02700209C130050082009403500094000E7A48030100940FDFDA4003F
:204CB000AC3F00502DE9F04F0646880FADF1140DC0F0EF80784F381D006841688D68CC683D
:204CD000486800B18047B946754F002D08BF002C0DD038461C300368002BFCD0002101602E
:204CF00005B1A84704B1A0476C480AF0EFFF3C4600256C49E5616C48216040F60A0CA0F80C
:204D100000C04580017B05F00F0221F00F010A430273AA46C0F804A0417B4FF0010B0BF04B
:204D30000F0721F00F0147EA01024273B268737C558011888646A1F60201C9B141F21E0794
:204D5000C91B15D041F6E677C91B012920D8507E012B65F38200507606D0108B20F47C70D5
:204D700040F43470108313E0108B65F30910F9E7507C012B65F38200507405D0108A20F4C0
:204D90007C7040F4347002E0108A65F309101082D6F8088075746046474600E01F467B6826
:204DB00013B119888842F9D1C7F804E0797B05F00F0221F00F010A437A73D9F86C303BB199
:204DD000D9680988C21F8A4229D0801F884226D0338C33B3C6F824A006F12002558096F849
:204DF0002C0005F00F0120F00F00014386F82C1096F82D000BF00F0320F00F0043EA000140
:204E100086F82D10CEF804209EF80D0005F00F0320F00F0043EA00018EF80D1001E0C9F8A1
:204E300008502248036882680192C168406B0093102220F0784040F0805003901C480291CD
:204E5000694605F06BFEE0690028FCD01948C9F8140099F81D00E56190B917480068006856
:204E7000014658468847012810D0787B0BF00F0120F00F0001437973104EC9F8146005E0A0
:204E900009F058FC0028FBD00CF0BEF8E561C4F8008005B0BDE8F08FC01B002001000706AC
:204EB0000010044001010E045C2700204C1300501800002145320000E0010010D9D20000DC
:204ED0002DE9F04F044675488A46016894461F46BAF1000FADF13C0D4DD0BCF1000F4AD05A
:204EF0009AF8002001209040014244D0BCF80000B0F5C15F32D1DCF81430DCF81820684858
:204F1000DCF81C104FF0030E0DF128080B93DFF894B10C9200680D91C0F3036958F8046FC3
:204F3000CEB10021351F05200B4655F8042FB2F1FF3F10D0934506D0401E01F1040103F1BF
:204F50000103F2D107E0052B05DA705820F4702040EA09407050BEF1010EDFD1C4F804A017
:204F7000C4F808C00CF040F84F4D8046287820B140460CF035FB00208DE002F05FFC4B4976
:204F9000086840F00200086007A80BF019FE002605F1D00007AA4649099609F09DFD45494A
:204FB00005F5827007AA09F097FD07A80BF0D8FDFF2105F1340007AB3F4A0891192109F0E7
:204FD00099FC3E4A05F150001A2107AB09F092FC3B49324605F18800134608F02FFE394970
:204FF000324605F1AC00134608F028FE364A05F12000042133460AF07DFE0E2004F0B8FE8F
:2050100005F174000BF0E4FC05F16C000BF0E0FC2E74072085F898012E77AE616E77052362
:20503000AE602B49EB602A786961501C2870274B1E7040460CF0D4FAB1464FB92548B0E8CF
:205050008C106946A1E88C100DC86F4681E80D0038682060398A6182012060747B6813B966
:2050700040F6C4130646E3601B48A06126746061F86800B1A061B86800B160615822494618
:2050900004F1200007F00EF804F1380049460AF083FC20466C600FB0BDE8F08FD421084067
:2050B000541300500200F844C01B0020002009405907010095910000CDCF000031CE000065
:2050D0004D0101002905010019DF0000FE270020619200006C2F010023B100002DE9F04F4D
:2050F00005468248066800680F461C469246C4F399018900ADF12C0D0A010021803206F0A1
:20511000D1FFDFF8D091A9F1880002467048016830469047A3088046610801979F1C21F061
:205130000101F819009506EB80000390091DCDF808A07818434506EB800206EB870B384496
:20515000049206EB80000690C4F39C004FEA800000F1080007EB400000EB070206EB820202
:205170000A9224F0030202F1080200EB020506EB85053A44059506EB82050A4407953A4408
:2051900006EB8202089206EB80020992084406EB800A384406EB800518BF6FF0010040F0C2
:2051B000938009F16800024641463046904700233CB10199264611F8010B761E40EA03035F
:2051D000F9D1002B08BF01207ED000263CB10299234611F8010B5B1E40EA0606F9D1002EC1
:2051F00008BF022070D001995846C84703980299C847009881680498C8473748049A594602
:2052100081462846C847012803D14FEA88042E590EB1032058E0BE0028460021324606F01C
:2052300041FF0399049A2846C847012801D12F590FB1042048E0294F294C069859463A462E
:20525000A047079803993A46A0470699089827460A46B84709980899069AB8470A98069998
:20527000204C2246B84728460021282206F01AFF1D4809990A9A81462846C84720342846B2
:2052900022460146C847079950460A46B84705980021324606F006FF5FFA88F450462CB93A
:2052B0005FFA88F10229B8BF012201DB5FFA88F200216B5C445CA34218BF052004D1491CF5
:2052D000521EC9B2F5D100200BB0BDE8F08FC0468C4F0020B9DB0010C9DE00104C1900202D
:2052F000F9E000101C2D0100C9E60010884F00202DE9F0410446804DA178A869ADF1180D6A
:20531000891F00F0F280C91E00F0DD80491E5FD0491E48D0C91E3CD0481E40F0E980287A96
:20533000697AB8B96878002831D0A0880CF02CF9071C00F0DD80A07A40080FD3787968B1F9
:20535000E168890A0AD2B91D01AA04F0C5FD0A2804D10321A0880CF013F9C9E0287B02287D
:2053700002D1A07A0009F4D3A088797904F1080201F0E2F8A869002800F0BA804368002B43
:2053900000F0B68000210A46A0889847B0E00521E0E7002800F0AC804368002B00F0A880B0
:2053B00062780221F0E70BF03BFC002800F0A080A86950B1076847B1206900906189227B86
:2053D000637BE01C3C46A04792E060890121C2E767784FF00008002F66D1A179490863D327
:2053F000EF69002F60D101A841460E2206F05AFEA0880CF0C9F8071C7AD0606940B9787932
:20541000B91D06228DF80A0001A80BF015FA19E06669307C062206F111018DF80A0001A85F
:205430000BF00AFA07F10C00B91D06220BF004FAB81D062206F111010BF0FEF9307C40F08E
:2054500002007871A079C00839BF387900F0FD00387940F002003871A079000939BF387983
:2054700000F0DF00387940F020003871A1799DF81120C1F3800010438DF81100080905D3BD
:205490009DF8110040F008008DF8110001A8214600F02AFB28B92878022104F023F9404629
:2054B00027E0A8694FF0150810B3436803B3A088627801219847B8F1000F19D0A8694368E4
:2054D0000321424660E7E078211D002204F004FD0A280DDA410001EB800004F10C022530FE
:2054F0000421C0B203F024F802E0A08806F0EAFF012006B0BDE8F081240C00200FB42DE9F7
:20551000F04F09AF8146ADF1240D0BF0C5FC391D30F0010021F0030101F1040100F0E2805D
:2055300005911420ADF8100000240294FF258DF812507E6806960CF01FF807460BF0ACFC92
:20555000DFF8B0B130F0010024D00CF011F8684E80460CF009F806EA0A061FFA88F1024696
:20557000090493B25846090C224641EA060A062163F31F4A30F80C6F4EB143681B689F42DC
:2055900004D0491E02F10102F4D100E0D5B250460BF0A5F9484608F0F1FB0146FF2904D0BA
:2055B0002846032205AB06F063F90BF0E5FF07F0B9F90746204600900BF06EFC30F00100F5
:2055D00000F08F80002F00F08C804B4DDFF82C912A68002400212346484605F04FFD06460A
:2055F0000BF0BEFF2A68804600212346484605F045FD08EB0604009E4FF6F8794FF00108A3
:2056100005460BE01EB1A6F10C0007F0CDFD0598006868E0FEE7024652E01D467868002101
:205630004FF000522B46FBF70FF9002832D007A80DF11D0101AA06F02FFA00BB9DF81C0033
:20565000062813DA9DF81C100BF10C02880000EBC100135A53B1994508D0019A0BF004FC63
:2056700000281CBF019E4FF0000813D10199684608F086F878684FF00051FBF7BDFBB5F1CF
:20569000FF3FCBD0002DC9D00BF06AFF231A01D09D42C2D20AF016FF009D0BF069FF144C07
:2056B00081460BF061FF083704EA0A041FFA89F180B20904090C214360F31F4145B12A4619
:2056D00052F80C0C0028A6D1386842F80C0C3D6008460BF004F9B8F1010F9BD0B8F1000F08
:2056F00090D0FEE7FEE709B0BDE8F04F04B070470000FFFF1814002090310100404B4C0085
:205710002DE9FE4F0E468246307AC10693461F464FF000090CD558460BF01EFF030000F079
:20573000E8800A223146504698475FEA00094DD130780C9D0D9CDDF8388002281AD17068F5
:205750000178407801EB002189B24FF42052891A012910D9891E3AD0491E14D0FD397AD0D9
:20577000491E00F08180491E6DD0491E73D0491E00F09580ABE0002C2AD1F06801782980DB
:205790000278416887E0002C22D101202880F1680A783A7000217089401C80B20BF0D8FE89
:2057B000298860B10278921C51182980418979704289120ABA7041680278F81C6CE0091D70
:2057D000298004220021781C0BF03AFC93E0002C66D1F0680688042129803E70320A7A70A6
:2057F0000DF1020130460BF0B3FE040021D0D4F80C80BDF802204FF6FF766B4631460BF075
:20581000A3FE40B9237862683C4802210BF098FE08B9ADF8006098F8000002280BD1D8F815
:2058300004100222381D0BF007F82888801C288001E0ADF80060BDF80000B870BDF8001055
:20585000090AF97057E0002C2AD1F068016850460BF07EF902E01CBBF06800880221298030
:205870003870000A787046E0F0680BF0EBFB80B2A042B8BF4FF007093DDB844208BF00227E
:2058900005D008EB04028242B4BF4246021B2A8092B2F068011938460AF0CEFF2BE014B1D9
:2058B0004FF00B0927E0F0680721298002783A7043787B704188B9704288120AFA700179CF
:2058D0003971C2887A71C088000AB87113E058460BF032FE5FEA00090BD00F980290CDF877
:2058F000048000942B463A4631465046C847814601E04FF00E094846BDE8FE8FA22D0100E5
:205910002DE9F04FADF1140D071C8B4602930E9D01920F9C039500F0CB80BBF1000F00F073
:20593000C780101C00F0C480181C00F0C180281C00F0BE80002C00F0C080206A002800F0DB
:20595000B780614D666A281D0068002E00F0B080A16A0BF0A1FE40B2061C08BF6FF002079F
:2059700000F0A28020786288216A84F82C6000EB80001218143290B288475249086030B918
:20599000284640680BF084FE4FF0FF378CE0A0684E4AE6684E4D106023692E608A464D480B
:2059B00066694D4A0360A56916604C4BE6694C4A1D6021781660207825794A4E6388DAF8F7
:2059D00000203570668801EB410106EB020C03EB4005AD18CE1805F10808C5180918AD1830
:2059F00005F10409C51CAD10D5502078C01C8010C9F800002078C01C8010C8F800002078B0
:205A1000B6180C36C01C801030602078C918891801F11005C01C801028602278CDF810C026
:205A300039466346181D05F079F82278594609F1040005F073F82278019908F1040005F0D6
:205A50006DF82378204649464246FFF747FB071C13D1009504984946424633460BF068FD59
:205A7000804622780298311D05F058F822780398291D05F053F84FFA88F721786288DAF8B1
:205A9000000001EB81015218002106F00BFB606A0146DAF8000088470B4840680BF0F8FD64
:205AB000F8B2992808BF002784F82C70384606E01CB16FF0010084F82C006FF0010005B017
:205AD000BDE8F08F884F0020441900208C4F0020904F0020944F0020984F0020804F00202B
:205AF000844F00209C4F00202DE9F04F714CDFF8C0A1E56988468146ADF1140D002D4AD164
:205B1000B9F1000F00F09280B8F1000F00F08E800AF008F806460A2E23DAD8F8147026749B
:205B3000002F39D0700010216A4600EB86002330C0B20AF08DFC90B950460778FF21102263
:205B500068460AF0ABFD50B93FB999F80600494600F001000BF0E8FC01E00120A074E5698A
:205B700019E004F1E60B0A2700265846FF2106220AF094FD68B97F1E0BF10E0B06F101069D
:205B9000F3D1607C002804BF0A2020744ED094F83660267400E0267C0A2E47DA002D35D1C4
:205BB00070000E214A4600EB86002030C0B202F0BFFC207C08F0F4F96846FF21102206F04F
:205BD00071FA207C10216A467030C0B202F0B0FC217C0E220801A0EB410000194946E630BD
:205BF0000AF02AFED8F814206AB15046007840B9107C02F11101002300F001000BF090FC21
:205C100001E00120A074C4F81C804CE0AA68002A3ED12A69002A2FD16A690ABBEA683AB9F5
:205C3000A07B08B109F0A2FB0AF003FC01203BE07000102100EB86002430C0B202F078FC77
:205C5000E769217CFA68480000EB8100103225300421C0B202F06CFCE1690020C86022E015
:205C70007000102100EB86002330C0B202F060FCE1690020486116E070001C2100EB8600C8
:205C90002230C0B202F054FCE169002008610AE070001C2100EB86002130C0B202F048FC1A
:205CB000E16900208860002005B0BDE8F08FC0465A4F0020240C00207CB56D4D04462868A5
:205CD0000E4628B94FF08040002107F0BBFB286000213CA30A4609F092FF20463DA3801E6C
:205CF00008D0801E61D0401E4CD0401E37D0401E22D00EE02868012E05D000210A4609F0D2
:205D10007EFF37A357E000210A4609F078FF39A351E0286800210A4609F071FF28680221DA
:205D300000223AA309F06BFF01208DF803009DF803000028FBD17CBD286800210A4609F089
:205D50005EFF28680221002236A309F058FF01208DF802009DF802000028FBD17CBD2868DC
:205D700000210A4609F04BFF28680221002232A309F045FF01208DF801009DF80100002813
:205D9000FBD17CBD286800210A4609F038FF2868022100222DA309F032FF01208DF8000048
:205DB0009DF800000028FBD17CBD286800210A4609F025FF29A328680221002209F01FFF3B
:205DD0007CBDC0463E3E3E535441434B20415353455254002A2A2A4552524F522A2A2A00CC
:205DF0003E3E20494E5445524E414C204552524F522100C03E3E20494E5445524E414C20F6
:205E10004657204552524F522100C0463E3E2044454641554C54205350494E4C4F434B21BF
:205E300000C046C03E3E2057524F4E47204150492043414C4C2100C03E3E204943414C4C4B
:205E50002054494D454F55542100C0463E3E204943414C4C2041424F525421003E3E204F1F
:205E70005554204F46204D454D4F52592100C046201100202DE9FC4F83F0004301E02DE935
:205E9000FC4F1F03FF0847EAD2574FEA42284FEA43095FEA595906D147EA080A1CBF0021EB
:205EB0000020BDE8FC8F57F000575FF4E06E1EF1FF0EF14505D14FF00000190D0905BDE803
:205ED000FC8F002B05D55FF0000AD8F100086AEB07070C03E40844EAD0544FEA40254FEA71
:205EF0004106760D08D144EA050A19BF00210020191C101CBDE8FC8F44F00054764504D1F0
:205F10000020090D0905BDE8FC8F002904D55FF0000A6D426AEB0404B6EB090E08D5A24619
:205F30003C465746AA464546D046CEF1000E4E46BEF1360F5CBF4FF0000B23E0BEF1000F26
:205F500004BF4FF0000B1AE0CEF1390ABAF120092EBF08FA09FB07FA0AFB4BEA080BDEF144
:205F7000200A07FA0AFA38BFBA4647FA0EF72DBF28FA0EF8AEF1200E4AFA0EF8D04415EB66
:205F900008057C4154EA050A02BF00210020BDE8FC8F002C58BF4FF0000A06D55FF0010AE7
:205FB0005FF0000E6D426EEB0404A6F101066D006441FAD515F4806E11D005F480794BEAE6
:205FD000090B15F5806554F1000428BF761C0BD205F400795BEA090B08BF25F4006525F4E6
:205FF000E0656D0044EB0404B61CDEBF00210020BDE8FC8F5FF4E06E1EF1FF0E76450AD373
:206010004FF0000013F00043FF21C900C91D09051943BDE8FC8F270547EA1530210B41EA89
:20603000065141EACA71BDE8FC8F70472DE9F04FADF1240D079001F001FC5F48007809F0EB
:206050001FFF5E4D0024012806D90C3804D0401E0ED0401E09D006E00AF046FB022804BFA2
:2060700001210C1C06D0696805E005211F2401E0032107246960524A1068C0F38150012817
:2060900006D152F80C0C0127020E07FA02F004430AF08EFD05F1440AFF2253464018401E0C
:2060B000471C28607F1E03F8012BFBD1079A1268002602F0FF03FE2B1DD0DDF81CC096467D
:2060D00033460EF0FF07FF2F0ED0B84205D3B94203D80122BA40144201D0022069E0164377
:2060F0000EF0FF020AF802305CF804EF5B1C0EF0FF07FE2FE7D1092003F03AFE07980121A1
:20611000A86005F1280009F047FC00274FF0010BB9462846804600F198050BFA07F0044298
:2061300016D1064204BF07F0FF0141F4C04104D01AF80700079951F82010224801F062FF6E
:20615000F8B24FF0FF3109F0BFFEC5F8009001E004202860D8F800007F1C2D1D8742DCD953
:2061700004A80AF0FDFC184C184A2078102104AB059008F10C0008F0BDFB68460AF020FD23
:20619000CDF80C906A4660681149029008F1640008F0A2FC0F4951F80D0C20F4F85040F4ED
:2061B000005041F80D0C0C4FC1F8FFBF4846C7F800B009B0BDE8F08F05280020F80E00200E
:2061D000B43F0050007FC767283101000D05010005E700000D30094008000940614801786D
:2061F000002900D170472DE9F843491E032984B004D9891F012940F2B180A9E05A4CDFF8AE
:206210006C912068DFF8688103685A4E03F10805062205F1080102A80AF00EFB0622A91C54
:2062300068460AF009FB2878C1091D2700F00F02032AC0F3801537D16079C0F380008142A7
:206250001ED12169062202A80AF008F800287AD0694628460BF0F8F9002874D031466846DD
:206270000BF0EEF9FF286ED04743D8F80000807AF519002818BF02280AD0012818BF032837
:2062900061D1F25D691C48460BF046F910285AD06B46EA1D294648460BF03AF90622694604
:2062B000E81D0AF0C9FA4EE000F00F00052855D16079C0F38000814245D12169062202A84B
:2062D00009F0CCFF00283ED0694628460BF0BCF9002838D0314668460BF0B2F9FF2832D0C3
:2062F0004743D8F80000807AF519002818BF01280AD0022818BF032825D1F25D691C4846A6
:206310000BF00AF910281ED040F2024008F002FC6B46EA1D294648460BF0FAF80622694666
:20633000E81D0AF089FA1448144A41F2044141804183418612480180124913481160012129
:20635000007803F0CFF921680A680020107105E000200AF035F986200BF04EF905B0BDE8EF
:20637000F08300BF6F4F0020F44B0020CC470020104F0020AC450020204A0020204F0020C2
:20639000504F0020595501106E4F00202DE9FE4F05466748083000680E464FF0FF310BF0D7
:2063B0007BF900F0EBFB6048624C4FF001084FF0000CAE46674600F2293000905A480196E5
:2063D000363400F2491966460025BEF1010F0EBF19F806300098835D002223F07F00802877
:2063F00014D102EBC700C1104FF0400B480100EB81104019001990F801A084F800B002F01B
:20641000070108FA01F141EA0A014170521C5800082AC3B2E1DD6D1C761C602DD5DB7F1C6B
:206430000CF1600C052FCEDBDFF80091D9F808000BF02EF901980AF02FFB0C2838BF002794
:2064500003D3019800214746C172019D28460AF023FBC0F10C0009F041FF2DA20CCA01F02C
:20647000E8FF2DA20CCA01F0E4FF2DA20CCAFFF706FD07F0BBFEC1B215220023284602F031
:20649000B3FD002F42D0D9F808004FF0FF310BF003F900F073FB244805265825A0F1010CAC
:2064B0001CF8013F002223F07F00802810D002F11501CF10780100EB871040190019477828
:2064D00001F0070108FA01F181F0FF0139400DE002F11501CF10780100EB87104019001993
:2064F000477801F0070108FA01F139434027521C5B002770082A4170DBB2D4DD761E05F1F2
:206510000105CDD1D9F808000BF0C2F8BDE8FE8F000000000000E03F000000000000184090
:206530000000000000003940082101002011002020110020360800202DE9F04F88468246BD
:20655000ADF1AC0D29920BF01FF85F4CE67894F80BB0A57A94F80C90071C00F0B18068467E
:206570000021A42205F09EFD2801279A58498DF8046005F0030300F4807605F00405ADF898
:2065900000A0B9F1020F01EA020143EA01024F4B8DF8A0B046EA020100F4C06603EA0102C6
:2065B00046EA020045EA00054FF00000279508BF01208DF837000AF0A7FF412809DB207B3E
:2065D00000280CBF002008209DF8991008438DF89900607B002804BF00208DF8380017D03F
:2065F00001208DF8380004F1860120220DF139000AF022F90DF1590004F1A60120220AF074
:206610001BF90DF1790004F1C60120220AF014F9A07940B18DF8260004F1500110220DF1AF
:2066300027000AF009F96679D6B17F1D04F1600504F15F01062017F8012F11F8013F9A42EC
:206650000ED1401EF7D18DF805600DF1060005F1160110220AF0F0F80DF11600A91D0CE050
:206670002079002804BF00208DF8050008D08DF8050004F140010DF1060010220AF0DCF840
:20669000E07930B1B8F1000F03D0279941F002012791002100B10121A7789DF89900002F09
:2066B00041EA00018DF899100CBF002004209DF89910084329998DF8990068460AF020FF31
:2066D0002BB0BDE8F08FC046240C0020FBF9FFFFFCFEFFFF2DE9F843614C5A4D5A4EDFF847
:2066F00070815E4F94F8E4100846401E0B2864D8DFE800F07B2C43062343062343067664F8
:20671000042907D001220A2945F8212C14BF0220032004E0202045F8210C0120024684F8FA
:20673000E200002045F8390C0827C5F8FF7FC5F8F37F45F8392CBDE8F883052914BF092040
:206750000620002784F8E400376075E094F8E170383D0120002FC5F81B0004BF062000210C
:2067700002D00021F160032084F8E400032045F8010C3160306880085ED294F8E4103348F9
:20679000012703290ED00068456800216022052300914046A84794F8E400062814BF0A2036
